{
  "_format": "hh-sol-artifact-1",
  "contractName": "EnergyTransact",
  "sourceName": "contracts/EnergyTransact.sol",
  "abi": [
    {
      "inputs": [
        {
          "internalType": "uint256",
          "name": "_tokenAmmount",
          "type": "uint256"
        },
        {
          "internalType": "uint256",
          "name": "_tokenValue",
          "type": "uint256"
        }
      ],
      "stateMutability": "nonpayable",
      "type": "constructor"
    },
    {
      "anonymous": false,
      "inputs": [
        {
          "indexed": true,
          "internalType": "address",
          "name": "owner",
          "type": "address"
        },
        {
          "indexed": true,
          "internalType": "address",
          "name": "spender",
          "type": "address"
        },
        {
          "indexed": false,
          "internalType": "uint256",
          "name": "value",
          "type": "uint256"
        }
      ],
      "name": "Approval",
      "type": "event"
    },
    {
      "inputs": [
        {
          "internalType": "address",
          "name": "spender",
          "type": "address"
        },
        {
          "internalType": "uint256",
          "name": "amount",
          "type": "uint256"
        }
      ],
      "name": "approve",
      "outputs": [
        {
          "internalType": "bool",
          "name": "",
          "type": "bool"
        }
      ],
      "stateMutability": "nonpayable",
      "type": "function"
    },
    {
      "inputs": [
        {
          "internalType": "address",
          "name": "_meterAddress",
          "type": "address"
        },
        {
          "internalType": "uint256",
          "name": "_amount",
          "type": "uint256"
        }
      ],
      "name": "buyEnergy",
      "outputs": [],
      "stateMutability": "payable",
      "type": "function"
    },
    {
      "inputs": [
        {
          "internalType": "uint256",
          "name": "_numTokens",
          "type": "uint256"
        }
      ],
      "name": "buyTokens",
      "outputs": [],
      "stateMutability": "payable",
      "type": "function"
    },
    {
      "inputs": [
        {
          "internalType": "address",
          "name": "spender",
          "type": "address"
        },
        {
          "internalType": "uint256",
          "name": "subtractedValue",
          "type": "uint256"
        }
      ],
      "name": "decreaseAllowance",
      "outputs": [
        {
          "internalType": "bool",
          "name": "",
          "type": "bool"
        }
      ],
      "stateMutability": "nonpayable",
      "type": "function"
    },
    {
      "inputs": [
        {
          "internalType": "address",
          "name": "spender",
          "type": "address"
        },
        {
          "internalType": "uint256",
          "name": "addedValue",
          "type": "uint256"
        }
      ],
      "name": "increaseAllowance",
      "outputs": [
        {
          "internalType": "bool",
          "name": "",
          "type": "bool"
        }
      ],
      "stateMutability": "nonpayable",
      "type": "function"
    },
    {
      "inputs": [
        {
          "internalType": "uint256",
          "name": "_numTokens",
          "type": "uint256"
        }
      ],
      "name": "returnTokens",
      "outputs": [],
      "stateMutability": "payable",
      "type": "function"
    },
    {
      "inputs": [
        {
          "internalType": "uint256",
          "name": "_value",
          "type": "uint256"
        }
      ],
      "name": "setTokenValue",
      "outputs": [],
      "stateMutability": "nonpayable",
      "type": "function"
    },
    {
      "inputs": [
        {
          "internalType": "address",
          "name": "to",
          "type": "address"
        },
        {
          "internalType": "uint256",
          "name": "amount",
          "type": "uint256"
        }
      ],
      "name": "transfer",
      "outputs": [
        {
          "internalType": "bool",
          "name": "",
          "type": "bool"
        }
      ],
      "stateMutability": "nonpayable",
      "type": "function"
    },
    {
      "anonymous": false,
      "inputs": [
        {
          "indexed": true,
          "internalType": "address",
          "name": "from",
          "type": "address"
        },
        {
          "indexed": true,
          "internalType": "address",
          "name": "to",
          "type": "address"
        },
        {
          "indexed": false,
          "internalType": "uint256",
          "name": "value",
          "type": "uint256"
        }
      ],
      "name": "Transfer",
      "type": "event"
    },
    {
      "inputs": [
        {
          "internalType": "address",
          "name": "from",
          "type": "address"
        },
        {
          "internalType": "address",
          "name": "to",
          "type": "address"
        },
        {
          "internalType": "uint256",
          "name": "amount",
          "type": "uint256"
        }
      ],
      "name": "transferFrom",
      "outputs": [
        {
          "internalType": "bool",
          "name": "",
          "type": "bool"
        }
      ],
      "stateMutability": "nonpayable",
      "type": "function"
    },
    {
      "inputs": [
        {
          "internalType": "address",
          "name": "owner",
          "type": "address"
        },
        {
          "internalType": "address",
          "name": "spender",
          "type": "address"
        }
      ],
      "name": "allowance",
      "outputs": [
        {
          "internalType": "uint256",
          "name": "",
          "type": "uint256"
        }
      ],
      "stateMutability": "view",
      "type": "function"
    },
    {
      "inputs": [],
      "name": "balanceEthers",
      "outputs": [
        {
          "internalType": "uint256",
          "name": "",
          "type": "uint256"
        }
      ],
      "stateMutability": "view",
      "type": "function"
    },
    {
      "inputs": [
        {
          "internalType": "address",
          "name": "account",
          "type": "address"
        }
      ],
      "name": "balanceOf",
      "outputs": [
        {
          "internalType": "uint256",
          "name": "",
          "type": "uint256"
        }
      ],
      "stateMutability": "view",
      "type": "function"
    },
    {
      "inputs": [],
      "name": "balanceTokens",
      "outputs": [
        {
          "internalType": "uint256",
          "name": "",
          "type": "uint256"
        }
      ],
      "stateMutability": "view",
      "type": "function"
    },
    {
      "inputs": [],
      "name": "decimals",
      "outputs": [
        {
          "internalType": "uint8",
          "name": "",
          "type": "uint8"
        }
      ],
      "stateMutability": "view",
      "type": "function"
    },
    {
      "inputs": [],
      "name": "microgrid",
      "outputs": [
        {
          "internalType": "contract Microgrid",
          "name": "",
          "type": "address"
        }
      ],
      "stateMutability": "view",
      "type": "function"
    },
    {
      "inputs": [],
      "name": "name",
      "outputs": [
        {
          "internalType": "string",
          "name": "",
          "type": "string"
        }
      ],
      "stateMutability": "view",
      "type": "function"
    },
    {
      "inputs": [
        {
          "internalType": "address",
          "name": "",
          "type": "address"
        }
      ],
      "name": "prosumerTotalBuyed",
      "outputs": [
        {
          "internalType": "uint256",
          "name": "",
          "type": "uint256"
        }
      ],
      "stateMutability": "view",
      "type": "function"
    },
    {
      "inputs": [],
      "name": "symbol",
      "outputs": [
        {
          "internalType": "string",
          "name": "",
          "type": "string"
        }
      ],
      "stateMutability": "view",
      "type": "function"
    },
    {
      "inputs": [],
      "name": "tokenValue",
      "outputs": [
        {
          "internalType": "uint256",
          "name": "",
          "type": "uint256"
        }
      ],
      "stateMutability": "view",
      "type": "function"
    },
    {
      "inputs": [],
      "name": "totalSupply",
      "outputs": [
        {
          "internalType": "uint256",
          "name": "",
          "type": "uint256"
        }
      ],
      "stateMutability": "view",
      "type": "function"
    }
  ],
  "bytecode": "608060405234801562000010575f80fd5b5060405162003eec38038062003eec83398181016040528101906200003691906200031c565b6040518060400160405280600d81526020017f456e65726779204d61726b6574000000000000000000000000000000000000008152506040518060400160405280600381526020017f4e524700000000000000000000000000000000000000000000000000000000008152508160039081620000b39190620005bc565b508060049081620000c59190620005bc565b505050620000da30836200016360201b60201c565b604051620000e890620002d2565b604051809103905ff08015801562000102573d5f803e3d5ffd5b5060065f6101000a81548173ffffffffffffffffffffffffffffffffffffffff021916908373ffffffffffffffffffffffffffffffffffffffff16021790555064e8d4a5100081620001559190620006cd565b6005819055505050620007fb565b5f73ffffffffffffffffffffffffffffffffffffffff168273ffffffffffffffffffffffffffffffffffffffff1603620001d4576040517f08c379a0000000000000000000000000000000000000000000000000000000008152600401620001cb9062000775565b60405180910390fd5b620001e75f8383620002c860201b60201c565b8060025f828254620001fa919062000795565b92505081905550805f808473ffffffffffffffffffffffffffffffffffffffff1673ffffffffffffffffffffffffffffffffffffffff1681526020019081526020015f205f82825401925050819055508173ffffffffffffffffffffffffffffffffffffffff165f73ffffffffffffffffffffffffffffffffffffffff167fddf252ad1be2c89b69c2b068fc378daa952ba7f163c4a11628f55a4df523b3ef83604051620002a99190620007e0565b60405180910390a3620002c45f8383620002cd60201b60201c565b5050565b505050565b505050565b61180780620026e583390190565b5f80fd5b5f819050919050565b620002f881620002e4565b811462000303575f80fd5b50565b5f815190506200031681620002ed565b92915050565b5f8060408385031215620003355762000334620002e0565b5b5f620003448582860162000306565b9250506020620003578582860162000306565b9150509250929050565b5f81519050919050565b7f4e487b71000000000000000000000000000000000000000000000000000000005f52604160045260245ffd5b7f4e487b71000000000000000000000000000000000000000000000000000000005f52602260045260245ffd5b5f6002820490506001821680620003dd57607f821691505b602082108103620003f357620003f262000398565b5b50919050565b5f819050815f5260205f209050919050565b5f6020601f8301049050919050565b5f82821b905092915050565b5f60088302620004577fffffffffffffffffffffffffffffffffffffffffffffffffffffffffffffffff826200041a565b6200046386836200041a565b95508019841693508086168417925050509392505050565b5f819050919050565b5f620004a46200049e6200049884620002e4565b6200047b565b620002e4565b9050919050565b5f819050919050565b620004bf8362000484565b620004d7620004ce82620004ab565b84845462000426565b825550505050565b5f90565b620004ed620004df565b620004fa818484620004b4565b505050565b5b818110156200052157620005155f82620004e3565b60018101905062000500565b5050565b601f82111562000570576200053a81620003f9565b62000545846200040b565b8101602085101562000555578190505b6200056d62000564856200040b565b830182620004ff565b50505b505050565b5f82821c905092915050565b5f620005925f198460080262000575565b1980831691505092915050565b5f620005ac838362000581565b9150826002028217905092915050565b620005c78262000361565b67ffffffffffffffff811115620005e357620005e26200036b565b5b620005ef8254620003c5565b620005fc82828562000525565b5f60209050601f83116001811462000632575f84156200061d578287015190505b6200062985826200059f565b86555062000698565b601f1984166200064286620003f9565b5f5b828110156200066b5784890151825560018201915060208501945060208101905062000644565b868310156200068b578489015162000687601f89168262000581565b8355505b6001600288020188555050505b505050505050565b7f4e487b71000000000000000000000000000000000000000000000000000000005f52601160045260245ffd5b5f620006d982620002e4565b9150620006e683620002e4565b9250828202620006f681620002e4565b9150828204841483151762000710576200070f620006a0565b5b5092915050565b5f82825260208201905092915050565b7f45524332303a206d696e7420746f20746865207a65726f2061646472657373005f82015250565b5f6200075d601f8362000717565b91506200076a8262000727565b602082019050919050565b5f6020820190508181035f8301526200078e816200074f565b9050919050565b5f620007a182620002e4565b9150620007ae83620002e4565b9250828201905080821115620007c957620007c8620006a0565b5b92915050565b620007da81620002e4565b82525050565b5f602082019050620007f55f830184620007cf565b92915050565b611edc80620008095f395ff3fe60806040526004361061011e575f3560e01c80633ae1786f1161009f578063a2bf693911610063578063a2bf6939146103c8578063a457c2d7146103f0578063a9059cbb1461042c578063dd62ed3e14610468578063e4494a0f146104a45761011e565b80633ae1786f146102e057806364a00b08146102fc57806370a082311461033857806381987b4a1461037457806395d89b411461039e5761011e565b806323b872dd116100e657806323b872dd14610206578063313ce567146102425780633610724e1461026c57806336fd7e1b1461028857806339509351146102a45761011e565b806306fdde0314610122578063095ea7b31461014c57806318160ddd146101885780631b052825146101b25780631ec7e345146101dc575b5f80fd5b34801561012d575f80fd5b506101366104ce565b604051610143919061135a565b60405180910390f35b348015610157575f80fd5b50610172600480360381019061016d919061140b565b61055e565b60405161017f9190611463565b60405180910390f35b348015610193575f80fd5b5061019c610580565b6040516101a9919061148b565b60405180910390f35b3480156101bd575f80fd5b506101c6610589565b6040516101d391906114ff565b60405180910390f35b3480156101e7575f80fd5b506101f06105ae565b6040516101fd919061148b565b60405180910390f35b348015610211575f80fd5b5061022c60048036038101906102279190611518565b6105b4565b6040516102399190611463565b60405180910390f35b34801561024d575f80fd5b506102566105e2565b6040516102639190611583565b60405180910390f35b6102866004803603810190610281919061159c565b6105ea565b005b6102a2600480360381019061029d919061140b565b6106eb565b005b3480156102af575f80fd5b506102ca60048036038101906102c5919061140b565b610aa2565b6040516102d79190611463565b60405180910390f35b6102fa60048036038101906102f5919061159c565b610ad8565b005b348015610307575f80fd5b50610322600480360381019061031d91906115c7565b610bbc565b60405161032f919061148b565b60405180910390f35b348015610343575f80fd5b5061035e600480360381019061035991906115c7565b610bd1565b60405161036b919061148b565b60405180910390f35b34801561037f575f80fd5b50610388610c16565b604051610395919061148b565b60405180910390f35b3480156103a9575f80fd5b506103b2610c1d565b6040516103bf919061135a565b60405180910390f35b3480156103d3575f80fd5b506103ee60048036038101906103e9919061159c565b610cad565b005b3480156103fb575f80fd5b506104166004803603810190610411919061140b565b610cc7565b6040516104239190611463565b60405180910390f35b348015610437575f80fd5b50610452600480360381019061044d919061140b565b610d3c565b60405161045f9190611463565b60405180910390f35b348015610473575f80fd5b5061048e600480360381019061048991906115f2565b610d5e565b60405161049b919061148b565b60405180910390f35b3480156104af575f80fd5b506104b8610de0565b6040516104c5919061148b565b60405180910390f35b6060600380546104dd9061165d565b80601f01602080910402602001604051908101604052809291908181526020018280546105099061165d565b80156105545780601f1061052b57610100808354040283529160200191610554565b820191905f5260205f20905b81548152906001019060200180831161053757829003601f168201915b5050505050905090565b5f80610568610def565b9050610575818585610df6565b600191505092915050565b5f600254905090565b60065f9054906101000a900473ffffffffffffffffffffffffffffffffffffffff1681565b60055481565b5f806105be610def565b90506105cb858285610fb9565b6105d6858585611044565b60019150509392505050565b5f6012905090565b5f6105f4826112b0565b905080341015610639576040517f08c379a0000000000000000000000000000000000000000000000000000000008152600401610630906116d7565b60405180910390fd5b5f610642610de0565b905080831115610687576040517f08c379a000000000000000000000000000000000000000000000000000000000815260040161067e9061173f565b60405180910390fd5b5f8234610694919061178a565b90503373ffffffffffffffffffffffffffffffffffffffff166108fc8290811502906040515f60405180830381858888f193505050501580156106d9573d5f803e3d5ffd5b506106e5303386611044565b50505050565b5f81116106f6575f80fd5b5f73ffffffffffffffffffffffffffffffffffffffff168273ffffffffffffffffffffffffffffffffffffffff1603610764576040517f08c379a000000000000000000000000000000000000000000000000000000000815260040161075b90611807565b60405180910390fd5b5f60065f9054906101000a900473ffffffffffffffffffffffffffffffffffffffff1673ffffffffffffffffffffffffffffffffffffffff166365580ec084846040518363ffffffff1660e01b81526004016107c1929190611834565b6020604051808303815f875af11580156107dd573d5f803e3d5ffd5b505050506040513d601f19601f82011682018060405250810190610801919061186f565b90505f60065f9054906101000a900473ffffffffffffffffffffffffffffffffffffffff1673ffffffffffffffffffffffffffffffffffffffff16638482df6a856040518263ffffffff1660e01b815260040161085e919061189a565b602060405180830381865afa158015610879573d5f803e3d5ffd5b505050506040513d601f19601f8201168201806040525081019061089d91906118c7565b90505f73ffffffffffffffffffffffffffffffffffffffff168173ffffffffffffffffffffffffffffffffffffffff160361090d576040517f08c379a00000000000000000000000000000000000000000000000000000000081526004016109049061193c565b60405180910390fd5b3373ffffffffffffffffffffffffffffffffffffffff168173ffffffffffffffffffffffffffffffffffffffff160361097b576040517f08c379a0000000000000000000000000000000000000000000000000000000008152600401610972906119ca565b60405180910390fd5b8161098533610bd1565b10156109c6576040517f08c379a00000000000000000000000000000000000000000000000000000000081526004016109bd906116d7565b60405180910390fd5b6109d1338284611044565b60065f9054906101000a900473ffffffffffffffffffffffffffffffffffffffff1673ffffffffffffffffffffffffffffffffffffffff16636caf9be285856040518363ffffffff1660e01b8152600401610a2d929190611834565b5f604051808303815f87803b158015610a44575f80fd5b505af1158015610a56573d5f803e3d5ffd5b505050508260075f3373ffffffffffffffffffffffffffffffffffffffff1673ffffffffffffffffffffffffffffffffffffffff1681526020019081526020015f208190555050505050565b5f80610aac610def565b9050610acd818585610abe8589610d5e565b610ac891906119e8565b610df6565b600191505092915050565b5f8111610b1a576040517f08c379a0000000000000000000000000000000000000000000000000000000008152600401610b1190611a8b565b60405180910390fd5b80471015610b5d576040517f08c379a0000000000000000000000000000000000000000000000000000000008152600401610b54906116d7565b60405180910390fd5b610b68333083611044565b5f610b72826112b0565b90503373ffffffffffffffffffffffffffffffffffffffff166108fc8290811502906040515f60405180830381858888f19350505050158015610bb7573d5f803e3d5ffd5b505050565b6007602052805f5260405f205f915090505481565b5f805f8373ffffffffffffffffffffffffffffffffffffffff1673ffffffffffffffffffffffffffffffffffffffff1681526020019081526020015f20549050919050565b5f47905090565b606060048054610c2c9061165d565b80601f0160208091040260200160405190810160405280929190818152602001828054610c589061165d565b8015610ca35780601f10610c7a57610100808354040283529160200191610ca3565b820191905f5260205f20905b815481529060010190602001808311610c8657829003601f168201915b5050505050905090565b64e8d4a5100081610cbe9190611aa9565b60058190555050565b5f80610cd1610def565b90505f610cde8286610d5e565b905083811015610d23576040517f08c379a0000000000000000000000000000000000000000000000000000000008152600401610d1a90611b5a565b60405180910390fd5b610d308286868403610df6565b60019250505092915050565b5f80610d46610def565b9050610d53818585611044565b600191505092915050565b5f60015f8473ffffffffffffffffffffffffffffffffffffffff1673ffffffffffffffffffffffffffffffffffffffff1681526020019081526020015f205f8373ffffffffffffffffffffffffffffffffffffffff1673ffffffffffffffffffffffffffffffffffffffff1681526020019081526020015f2054905092915050565b5f610dea30610bd1565b905090565b5f33905090565b5f73ffffffffffffffffffffffffffffffffffffffff168373ffffffffffffffffffffffffffffffffffffffff1603610e64576040517f08c379a0000000000000000000000000000000000000000000000000000000008152600401610e5b90611be8565b60405180910390fd5b5f73ffffffffffffffffffffffffffffffffffffffff168273ffffffffffffffffffffffffffffffffffffffff1603610ed2576040517f08c379a0000000000000000000000000000000000000000000000000000000008152600401610ec990611c76565b60405180910390fd5b8060015f8573ffffffffffffffffffffffffffffffffffffffff1673ffffffffffffffffffffffffffffffffffffffff1681526020019081526020015f205f8473ffffffffffffffffffffffffffffffffffffffff1673ffffffffffffffffffffffffffffffffffffffff1681526020019081526020015f20819055508173ffffffffffffffffffffffffffffffffffffffff168373ffffffffffffffffffffffffffffffffffffffff167f8c5be1e5ebec7d5bd14f71427d1e84f3dd0314c0f7b2291e5b200ac8c7c3b92583604051610fac919061148b565b60405180910390a3505050565b5f610fc48484610d5e565b90507fffffffffffffffffffffffffffffffffffffffffffffffffffffffffffffffff811461103e5781811015611030576040517f08c379a000000000000000000000000000000000000000000000000000000000815260040161102790611cde565b60405180910390fd5b61103d8484848403610df6565b5b50505050565b5f73ffffffffffffffffffffffffffffffffffffffff168373ffffffffffffffffffffffffffffffffffffffff16036110b2576040517f08c379a00000000000000000000000000000000000000000000000000000000081526004016110a990611d6c565b60405180910390fd5b5f73ffffffffffffffffffffffffffffffffffffffff168273ffffffffffffffffffffffffffffffffffffffff1603611120576040517f08c379a000000000000000000000000000000000000000000000000000000000815260040161111790611dfa565b60405180910390fd5b61112b8383836112c6565b5f805f8573ffffffffffffffffffffffffffffffffffffffff1673ffffffffffffffffffffffffffffffffffffffff1681526020019081526020015f20549050818110156111ae576040517f08c379a00000000000000000000000000000000000000000000000000000000081526004016111a590611e88565b60405180910390fd5b8181035f808673ffffffffffffffffffffffffffffffffffffffff1673ffffffffffffffffffffffffffffffffffffffff1681526020019081526020015f2081905550815f808573ffffffffffffffffffffffffffffffffffffffff1673ffffffffffffffffffffffffffffffffffffffff1681526020019081526020015f205f82825401925050819055508273ffffffffffffffffffffffffffffffffffffffff168473ffffffffffffffffffffffffffffffffffffffff167fddf252ad1be2c89b69c2b068fc378daa952ba7f163c4a11628f55a4df523b3ef84604051611297919061148b565b60405180910390a36112aa8484846112cb565b50505050565b5f600554826112bf9190611aa9565b9050919050565b505050565b505050565b5f81519050919050565b5f82825260208201905092915050565b5f5b838110156113075780820151818401526020810190506112ec565b5f8484015250505050565b5f601f19601f8301169050919050565b5f61132c826112d0565b61133681856112da565b93506113468185602086016112ea565b61134f81611312565b840191505092915050565b5f6020820190508181035f8301526113728184611322565b905092915050565b5f80fd5b5f73ffffffffffffffffffffffffffffffffffffffff82169050919050565b5f6113a78261137e565b9050919050565b6113b78161139d565b81146113c1575f80fd5b50565b5f813590506113d2816113ae565b92915050565b5f819050919050565b6113ea816113d8565b81146113f4575f80fd5b50565b5f81359050611405816113e1565b92915050565b5f80604083850312156114215761142061137a565b5b5f61142e858286016113c4565b925050602061143f858286016113f7565b9150509250929050565b5f8115159050919050565b61145d81611449565b82525050565b5f6020820190506114765f830184611454565b92915050565b611485816113d8565b82525050565b5f60208201905061149e5f83018461147c565b92915050565b5f819050919050565b5f6114c76114c26114bd8461137e565b6114a4565b61137e565b9050919050565b5f6114d8826114ad565b9050919050565b5f6114e9826114ce565b9050919050565b6114f9816114df565b82525050565b5f6020820190506115125f8301846114f0565b92915050565b5f805f6060848603121561152f5761152e61137a565b5b5f61153c868287016113c4565b935050602061154d868287016113c4565b925050604061155e868287016113f7565b9150509250925092565b5f60ff82169050919050565b61157d81611568565b82525050565b5f6020820190506115965f830184611574565b92915050565b5f602082840312156115b1576115b061137a565b5b5f6115be848285016113f7565b91505092915050565b5f602082840312156115dc576115db61137a565b5b5f6115e9848285016113c4565b91505092915050565b5f80604083850312156116085761160761137a565b5b5f611615858286016113c4565b9250506020611626858286016113c4565b9150509250929050565b7f4e487b71000000000000000000000000000000000000000000000000000000005f52602260045260245ffd5b5f600282049050600182168061167457607f821691505b60208210810361168757611686611630565b5b50919050565b7f4e6f206861792064696e65726f20737566696369656e746500000000000000005f82015250565b5f6116c16018836112da565b91506116cc8261168d565b602082019050919050565b5f6020820190508181035f8301526116ee816116b5565b9050919050565b7f4e6f2068617920746f6b656e7320737566696369656e746573000000000000005f82015250565b5f6117296019836112da565b9150611734826116f5565b602082019050919050565b5f6020820190508181035f8301526117568161171d565b9050919050565b7f4e487b71000000000000000000000000000000000000000000000000000000005f52601160045260245ffd5b5f611794826113d8565b915061179f836113d8565b92508282039050818111156117b7576117b661175d565b5b92915050565b7f4e6f2065786973746520656c206d656469646f720000000000000000000000005f82015250565b5f6117f16014836112da565b91506117fc826117bd565b602082019050919050565b5f6020820190508181035f83015261181e816117e5565b9050919050565b61182e8161139d565b82525050565b5f6040820190506118475f830185611825565b611854602083018461147c565b9392505050565b5f81519050611869816113e1565b92915050565b5f602082840312156118845761188361137a565b5b5f6118918482850161185b565b91505092915050565b5f6020820190506118ad5f830184611825565b92915050565b5f815190506118c1816113ae565b92915050565b5f602082840312156118dc576118db61137a565b5b5f6118e9848285016118b3565b91505092915050565b7f4e6f2065786973746520656c2070726f73756d69646f720000000000000000005f82015250565b5f6119266017836112da565b9150611931826118f2565b602082019050919050565b5f6020820190508181035f8301526119538161191a565b9050919050565b7f496e74656e746120636f6d7072617220616c206d69736d6f2070726f73756d695f8201527f646f720000000000000000000000000000000000000000000000000000000000602082015250565b5f6119b46023836112da565b91506119bf8261195a565b604082019050919050565b5f6020820190508181035f8301526119e1816119a8565b9050919050565b5f6119f2826113d8565b91506119fd836113d8565b9250828201905080821115611a1557611a1461175d565b5b92915050565b7f456c2076616c6f72206465206c61206465766f6c7563696f6e206e6f206573205f8201527f76616c69646f0000000000000000000000000000000000000000000000000000602082015250565b5f611a756026836112da565b9150611a8082611a1b565b604082019050919050565b5f6020820190508181035f830152611aa281611a69565b9050919050565b5f611ab3826113d8565b9150611abe836113d8565b9250828202611acc816113d8565b91508282048414831517611ae357611ae261175d565b5b5092915050565b7f45524332303a2064656372656173656420616c6c6f77616e63652062656c6f775f8201527f207a65726f000000000000000000000000000000000000000000000000000000602082015250565b5f611b446025836112da565b9150611b4f82611aea565b604082019050919050565b5f6020820190508181035f830152611b7181611b38565b9050919050565b7f45524332303a20617070726f76652066726f6d20746865207a65726f206164645f8201527f7265737300000000000000000000000000000000000000000000000000000000602082015250565b5f611bd26024836112da565b9150611bdd82611b78565b604082019050919050565b5f6020820190508181035f830152611bff81611bc6565b9050919050565b7f45524332303a20617070726f766520746f20746865207a65726f2061646472655f8201527f7373000000000000000000000000000000000000000000000000000000000000602082015250565b5f611c606022836112da565b9150611c6b82611c06565b604082019050919050565b5f6020820190508181035f830152611c8d81611c54565b9050919050565b7f45524332303a20696e73756666696369656e7420616c6c6f77616e63650000005f82015250565b5f611cc8601d836112da565b9150611cd382611c94565b602082019050919050565b5f6020820190508181035f830152611cf581611cbc565b9050919050565b7f45524332303a207472616e736665722066726f6d20746865207a65726f2061645f8201527f6472657373000000000000000000000000000000000000000000000000000000602082015250565b5f611d566025836112da565b9150611d6182611cfc565b604082019050919050565b5f6020820190508181035f830152611d8381611d4a565b9050919050565b7f45524332303a207472616e7366657220746f20746865207a65726f20616464725f8201527f6573730000000000000000000000000000000000000000000000000000000000602082015250565b5f611de46023836112da565b9150611def82611d8a565b604082019050919050565b5f6020820190508181035f830152611e1181611dd8565b9050919050565b7f45524332303a207472616e7366657220616d6f756e74206578636565647320625f8201527f616c616e63650000000000000000000000000000000000000000000000000000602082015250565b5f611e726026836112da565b9150611e7d82611e18565b604082019050919050565b5f6020820190508181035f830152611e9f81611e66565b905091905056fea26469706673582212202f75f49ee6ef2a9bdccbc6e8f0666fc1b9a904a8f1439fc76a84604d85fae51e64736f6c63430008160033608060405234801561000f575f80fd5b506117ea8061001d5f395ff3fe608060405234801561000f575f80fd5b50600436106100f3575f3560e01c80637cc9dbc011610095578063a81993c911610064578063a81993c91461029b578063a851d379146102b7578063d4d9dfc9146102d3578063de348951146102ef576100f3565b80637cc9dbc0146101ff5780638482df6a1461021d578063931c93e91461024d578063a76aab681461026b576100f3565b806350fa74cc116100d157806350fa74cc1461016157806365580ec01461017d5780636caf9be2146101ad57806372abdd3b146101c9576100f3565b80630b929a2d146100f75780632bdb709714610127578063374cd5ae14610143575b5f80fd5b610111600480360381019061010c9190611286565b61030b565b60405161011e91906112f0565b60405180910390f35b610141600480360381019061013c9190611333565b610346565b005b61014b6103fc565b6040516101589190611380565b60405180910390f35b61017b60048036038101906101769190611333565b610402565b005b61019760048036038101906101929190611333565b61076c565b6040516101a49190611380565b60405180910390f35b6101c760048036038101906101c29190611333565b610965565b005b6101e360048036038101906101de9190611399565b610b0e565b6040516101f697969594939291906113de565b60405180910390f35b610207610b57565b6040516102149190611502565b60405180910390f35b61023760048036038101906102329190611399565b610be2565b60405161024491906112f0565b60405180910390f35b610255610c12565b6040516102629190611502565b60405180910390f35b61028560048036038101906102809190611333565b610cd8565b60405161029291906112f0565b60405180910390f35b6102b560048036038101906102b09190611333565b610d20565b005b6102d160048036038101906102cc9190611399565b610e3c565b005b6102ed60048036038101906102e89190611399565b610f02565b005b61030960048036038101906103049190611522565b610fc9565b005b6003818154811061031a575f80fd5b905f5260205f20015f915054906101000a900473ffffffffffffffffffffffffffffffffffffffff1681565b5f73ffffffffffffffffffffffffffffffffffffffff168273ffffffffffffffffffffffffffffffffffffffff16036103b4576040517f08c379a00000000000000000000000000000000000000000000000000000000081526004016103ab906115cc565b60405180910390fd5b805f808473ffffffffffffffffffffffffffffffffffffffff1673ffffffffffffffffffffffffffffffffffffffff1681526020019081526020015f20600101819055505050565b60045481565b5f811161040d575f80fd5b5f73ffffffffffffffffffffffffffffffffffffffff168273ffffffffffffffffffffffffffffffffffffffff160361047b576040517f08c379a0000000000000000000000000000000000000000000000000000000008152600401610472906115cc565b60405180910390fd5b5f15155f808473ffffffffffffffffffffffffffffffffffffffff1673ffffffffffffffffffffffffffffffffffffffff1681526020019081526020015f205f015f9054906101000a900460ff1615151461050b576040517f08c379a000000000000000000000000000000000000000000000000000000000815260040161050290611634565b60405180910390fd5b3360015f8473ffffffffffffffffffffffffffffffffffffffff1673ffffffffffffffffffffffffffffffffffffffff1681526020019081526020015f205f6101000a81548173ffffffffffffffffffffffffffffffffffffffff021916908373ffffffffffffffffffffffffffffffffffffffff1602179055506040518060e001604052806001151581526020018281526020015f81526020015f81526020015f81526020015f81526020015f8152505f808473ffffffffffffffffffffffffffffffffffffffff1673ffffffffffffffffffffffffffffffffffffffff1681526020019081526020015f205f820151815f015f6101000a81548160ff0219169083151502179055506020820151816001015560408201518160020155606082015181600301556080820151816004015560a0820151816005015560c08201518160060155905050600382908060018154018082558091505060019003905f5260205f20015f9091909190916101000a81548173ffffffffffffffffffffffffffffffffffffffff021916908373ffffffffffffffffffffffffffffffffffffffff16021790555060025f3373ffffffffffffffffffffffffffffffffffffffff1673ffffffffffffffffffffffffffffffffffffffff1681526020019081526020015f2082908060018154018082558091505060019003905f5260205f20015f9091909190916101000a81548173ffffffffffffffffffffffffffffffffffffffff021916908373ffffffffffffffffffffffffffffffffffffffff160217905550600160045f828254610761919061167f565b925050819055505050565b5f808211610778575f80fd5b5f73ffffffffffffffffffffffffffffffffffffffff168373ffffffffffffffffffffffffffffffffffffffff16036107e6576040517f08c379a00000000000000000000000000000000000000000000000000000000081526004016107dd906115cc565b60405180910390fd5b815f808573ffffffffffffffffffffffffffffffffffffffff1673ffffffffffffffffffffffffffffffffffffffff1681526020019081526020015f20600401541015610868576040517f08c379a000000000000000000000000000000000000000000000000000000000815260040161085f90611722565b60405180910390fd5b815f808573ffffffffffffffffffffffffffffffffffffffff1673ffffffffffffffffffffffffffffffffffffffff1681526020019081526020015f206006015f8282546108b6919061167f565b92505081905550815f808573ffffffffffffffffffffffffffffffffffffffff1673ffffffffffffffffffffffffffffffffffffffff1681526020019081526020015f206004015f82825461090b9190611740565b925050819055505f808473ffffffffffffffffffffffffffffffffffffffff1673ffffffffffffffffffffffffffffffffffffffff1681526020019081526020015f20600101548261095d9190611773565b905092915050565b5f8111610970575f80fd5b5f73ffffffffffffffffffffffffffffffffffffffff168273ffffffffffffffffffffffffffffffffffffffff16036109de576040517f08c379a00000000000000000000000000000000000000000000000000000000081526004016109d5906115cc565b60405180910390fd5b805f808473ffffffffffffffffffffffffffffffffffffffff1673ffffffffffffffffffffffffffffffffffffffff1681526020019081526020015f20600401541015610a60576040517f08c379a0000000000000000000000000000000000000000000000000000000008152600401610a5790611722565b60405180910390fd5b805f808473ffffffffffffffffffffffffffffffffffffffff1673ffffffffffffffffffffffffffffffffffffffff1681526020019081526020015f206005015f828254610aae919061167f565b92505081905550805f808473ffffffffffffffffffffffffffffffffffffffff1673ffffffffffffffffffffffffffffffffffffffff1681526020019081526020015f206006015f828254610b039190611740565b925050819055505050565b5f602052805f5260405f205f91509050805f015f9054906101000a900460ff16908060010154908060020154908060030154908060040154908060050154908060060154905087565b60606003805480602002602001604051908101604052809291908181526020018280548015610bd857602002820191905f5260205f20905b815f9054906101000a900473ffffffffffffffffffffffffffffffffffffffff1673ffffffffffffffffffffffffffffffffffffffff1681526020019060010190808311610b8f575b5050505050905090565b6001602052805f5260405f205f915054906101000a900473ffffffffffffffffffffffffffffffffffffffff1681565b606060025f3373ffffffffffffffffffffffffffffffffffffffff1673ffffffffffffffffffffffffffffffffffffffff1681526020019081526020015f20805480602002602001604051908101604052809291908181526020018280548015610cce57602002820191905f5260205f20905b815f9054906101000a900473ffffffffffffffffffffffffffffffffffffffff1673ffffffffffffffffffffffffffffffffffffffff1681526020019060010190808311610c85575b5050505050905090565b6002602052815f5260405f208181548110610cf1575f80fd5b905f5260205f20015f915091509054906101000a900473ffffffffffffffffffffffffffffffffffffffff1681565b5f8111610d2b575f80fd5b5f73ffffffffffffffffffffffffffffffffffffffff168273ffffffffffffffffffffffffffffffffffffffff1603610d62575f80fd5b805f808473ffffffffffffffffffffffffffffffffffffffff1673ffffffffffffffffffffffffffffffffffffffff1681526020019081526020015f206004015410610de3576040517f08c379a0000000000000000000000000000000000000000000000000000000008152600401610dda90611722565b60405180910390fd5b805f808473ffffffffffffffffffffffffffffffffffffffff1673ffffffffffffffffffffffffffffffffffffffff1681526020019081526020015f206006015f828254610e319190611740565b925050819055505050565b5f73ffffffffffffffffffffffffffffffffffffffff168173ffffffffffffffffffffffffffffffffffffffff1603610eaa576040517f08c379a0000000000000000000000000000000000000000000000000000000008152600401610ea1906115cc565b60405180910390fd5b5f805f8373ffffffffffffffffffffffffffffffffffffffff1673ffffffffffffffffffffffffffffffffffffffff1681526020019081526020015f205f015f6101000a81548160ff02191690831515021790555050565b5f73ffffffffffffffffffffffffffffffffffffffff168173ffffffffffffffffffffffffffffffffffffffff1603610f70576040517f08c379a0000000000000000000000000000000000000000000000000000000008152600401610f67906115cc565b60405180910390fd5b60015f808373ffffffffffffffffffffffffffffffffffffffff1673ffffffffffffffffffffffffffffffffffffffff1681526020019081526020015f205f015f6101000a81548160ff02191690831515021790555050565b5f8210158015610fd957505f8110155b610fe1575f80fd5b5f73ffffffffffffffffffffffffffffffffffffffff168373ffffffffffffffffffffffffffffffffffffffff160361104f576040517f08c379a0000000000000000000000000000000000000000000000000000000008152600401611046906115cc565b60405180910390fd5b5f808473ffffffffffffffffffffffffffffffffffffffff1673ffffffffffffffffffffffffffffffffffffffff1681526020019081526020015f206002015482146110da57815f808573ffffffffffffffffffffffffffffffffffffffff1673ffffffffffffffffffffffffffffffffffffffff1681526020019081526020015f20600201819055505b5f808473ffffffffffffffffffffffffffffffffffffffff1673ffffffffffffffffffffffffffffffffffffffff1681526020019081526020015f2060030154811461116557805f808573ffffffffffffffffffffffffffffffffffffffff1673ffffffffffffffffffffffffffffffffffffffff1681526020019081526020015f20600301819055505b5f805f8573ffffffffffffffffffffffffffffffffffffffff1673ffffffffffffffffffffffffffffffffffffffff1681526020019081526020015f206005015483836111b29190611740565b6111bc9190611740565b90505f808573ffffffffffffffffffffffffffffffffffffffff1673ffffffffffffffffffffffffffffffffffffffff1681526020019081526020015f2060040154811461124957805f808673ffffffffffffffffffffffffffffffffffffffff1673ffffffffffffffffffffffffffffffffffffffff1681526020019081526020015f20600401819055505b50505050565b5f80fd5b5f819050919050565b61126581611253565b811461126f575f80fd5b50565b5f813590506112808161125c565b92915050565b5f6020828403121561129b5761129a61124f565b5b5f6112a884828501611272565b91505092915050565b5f73ffffffffffffffffffffffffffffffffffffffff82169050919050565b5f6112da826112b1565b9050919050565b6112ea816112d0565b82525050565b5f6020820190506113035f8301846112e1565b92915050565b611312816112d0565b811461131c575f80fd5b50565b5f8135905061132d81611309565b92915050565b5f80604083850312156113495761134861124f565b5b5f6113568582860161131f565b925050602061136785828601611272565b9150509250929050565b61137a81611253565b82525050565b5f6020820190506113935f830184611371565b92915050565b5f602082840312156113ae576113ad61124f565b5b5f6113bb8482850161131f565b91505092915050565b5f8115159050919050565b6113d8816113c4565b82525050565b5f60e0820190506113f15f83018a6113cf565b6113fe6020830189611371565b61140b6040830188611371565b6114186060830187611371565b6114256080830186611371565b61143260a0830185611371565b61143f60c0830184611371565b98975050505050505050565b5f81519050919050565b5f82825260208201905092915050565b5f819050602082019050919050565b61147d816112d0565b82525050565b5f61148e8383611474565b60208301905092915050565b5f602082019050919050565b5f6114b08261144b565b6114ba8185611455565b93506114c583611465565b805f5b838110156114f55781516114dc8882611483565b97506114e78361149a565b9250506001810190506114c8565b5085935050505092915050565b5f6020820190508181035f83015261151a81846114a6565b905092915050565b5f805f606084860312156115395761153861124f565b5b5f6115468682870161131f565b935050602061155786828701611272565b925050604061156886828701611272565b9150509250925092565b5f82825260208201905092915050565b7f56657269666963617220646972656363696f6e000000000000000000000000005f82015250565b5f6115b6601383611572565b91506115c182611582565b602082019050919050565b5f6020820190508181035f8301526115e3816115aa565b9050919050565b7f4d656469646f72206578697374656e74650000000000000000000000000000005f82015250565b5f61161e601183611572565b9150611629826115ea565b602082019050919050565b5f6020820190508181035f83015261164b81611612565b9050919050565b7f4e487b71000000000000000000000000000000000000000000000000000000005f52601160045260245ffd5b5f61168982611253565b915061169483611253565b92508282019050808211156116ac576116ab611652565b5b92915050565b7f4e6f2068617920737566696369656e746520656e657267696120646973706f6e5f8201527f69626c6500000000000000000000000000000000000000000000000000000000602082015250565b5f61170c602483611572565b9150611717826116b2565b604082019050919050565b5f6020820190508181035f83015261173981611700565b9050919050565b5f61174a82611253565b915061175583611253565b925082820390508181111561176d5761176c611652565b5b92915050565b5f61177d82611253565b915061178883611253565b925082820261179681611253565b915082820484148315176117ad576117ac611652565b5b509291505056fea264697066735822122020dd711439146fe7bb349dafdcb3ea1d4928fc461b5c41eb98beef516049287d64736f6c63430008160033",
  "linkReferences": {},
  "deployedLinkReferences": {}
}